:10000000A8020120E9020000E5020000E50200006C
:10001000E5020000E5020000E5020000000000002B
:10002000000000000000000000000000E5020000E9
:10003000E502000000000000E5020000E50200000B
:10004000E5020000E5020000E5020000E502000014
:10005000E5020000E5020000E5020000E502000004
:10006000E5020000E5020000E5020000E5020000F4
:10007000E5020000E5020000E5020000E5020000E4
:10008000E5020000E5020000E5020000E5020000D4
:10009000E5020000E5020000E5020000E5020000C4
:1000A000E5020000E5020000E5020000E5020000B4
:1000B000E5020000E5020000E5020000E5020000A4
:1000C000E5020000E5020000E5020000E502000094
:1000D000E5020000E5020000E5020000E502000084
:1000E000E5020000E5020000000000000000000042
:1000F00000000000990D0000E5020000E50200008C
:10010000E5020000E5020000E5020000E502000053
:10011000E5020000E5020000E5020000E502000043
:10012000E5020000E5020000E5020000E502000033
:10013000E5020000E5020000E5020000E502000023
:10014000E5020000E5020000E5020000E502000013
:10015000E5020000E5020000E5020000E502000003
:10016000E5020000E5020000E5020000E5020000F3
:10017000E5020000E5020000E50200000D0C0000B1
:10018000E5020000E5020000E5020000E5020000D3
:10019000E5020000E5020000E5020000E5020000C3
:1001A000E5020000E5020000E5020000E5020000B3
:1001B000E5020000E5020000E5020000E5020000A3
:1001C000E5020000E5020000E5020000E502000093
:1001D000E5020000E5020000E5020000E502000083
:1001E000E5020000E5020000E5020000E502000073
:1001F000E5020000E5020000E5020000E502000063
:10020000E5020000E5020000E5020000E502000052
:10021000E5020000E5020000E5020000E502000042
:10022000E5020000E5020000E5020000E502000032
:10023000E5020000E5020000E5020000E502000022
:10024000E5020000E5020000E5020000E502000012
:10025000E5020000E5020000E5020000E502000002
:10026000E502000010B5054C237833B9044B13B1F7
:100270000448AFF300800123237010BDE401002087
:1002800000000000B03A00000C4B43B10C480D498F
:1002900010B5AFF300800C48036823B910BD0A48BD
:1002A000036833B97047094B002BF7D0BDE8104005
:1002B0001847064B002BF5D0184700BF0000000080
:1002C000B03A0000E8010020B03A00000000000051
:1002D00008B5024B9847024B984708BD9D040000A3
:1002E000B5140000FEE7000008B51C4B1C4A9A42FA
:1002F00010D01C4B194A9A420CD2013B9B1A23F096
:10030000030304331344164951F8040B42F8040B59
:100310009A42F9D1144B154A9A420AD2013B9B1AD0
:1003200023F0030304331344002142F8041B9342D7
:10033000FBD10F4B0F4A22F07F029A60D3F888203E
:1003400042F47002C3F88820BFF34F8FBFF36F8F62
:10035000094B9847094B9847FEE700BF0000002073
:10036000B03A0000E4010020A4020020E4010020D3
:1003700000ED00E000000000D5140000DD0F0000DB
:10038000104B93F8562002F0FE0242F0010283F86F
:10039000562093F83B2002F0F00242F0020283F86C
:1003A0003B2093F8572002F0FE0242F0010283F84E
:1003B000572093F83B2002F00F0242F0200283F80E
:1003C0003B20704700800041064B4022C3F8E020EC
:1003D0004322C3F88C20044A936943F480639361F9
:1003E000704700BF001C00400008004008B5054BE6
:1003F0009847002204490548054B9847054B984704
:1004000008BD00BFC9030000004001416402002094
:100410009907000081030000104B93F8CD2002F0F3
:10042000FE0242F0010283F8CD2093F8B62002F0DC
:100430000F0242F0700283F8B62093F8CC2002F04D
:10044000FE0242F0010283F8CC2093F8B62002F0BD
:10045000F00242F0070283F8B620704700800041A6
:1004600008B5084A136943F4802313614222064BFE
:10047000C3F8F02005490648064B9847064B9847B5
:1004800008BD00BF00080040001C004000040042FE
:100490003C020020090500001904000008B50E4BBD
:1004A00098470E4B4FF40052C3F81421C3F80821AB
:1004B00002F18042C3F828214FF04042C3F82821BE
:1004C00093F84D2102F0FE0283F84D21044B98472A
:1004D000044B984708BD00BF890C00000080004114
:1004E000ED0300006104000008B5C36903B198473B
:1004F00008BD08B5036A03B1984708BD08B5436A4B
:1005000003B1984708BD000038B50D460446A0B1B8
:10051000081C18BF0120412209490A4B9847294667
:100520002046094B9847034628B9084A6260084AA2
:10053000A260084AE260184638BD0020EBE700BF21
:10054000303200000D08000051080000E9040000EE
:10055000F3040000FD04000010B504465C220549C8
:10056000003018BF0120044B98472046034B9847A2
:1005700010BD00BF303200000D0800006D09000002
:1005800038B50C46054658B1081C18BF01206E222C
:100590000449054B984721462846044B984738BDE7
:1005A0000020F4E7303200000D0800007D09000053
:1005B00038B50C46054658B1081C18BF01207722F3
:1005C0000449054B984721462846044B984738BDB7
:1005D0000020F4E7303200000D080000310A00006E
:1005E00070B50C461646054681220E49003018BFEC
:1005F00001200D4B9847012C0FD024B1022C0ED0B6
:100600006FF00C0070BD2E62321C18BF0122214613
:100610002846064B9847002070BDEE61F4E76E62F5
:10062000F2E700BF303200000D080000490B000067
:10063000F8B50D4616461F460446B8220649003056
:1006400018BF0120054B98473B46324629462046B5
:10065000034CA047F8BD00BF303200000D08000079
:100660008D0B000070B50D461646044660B1081C9F
:1006700018BF012034220549054B984723683246AC
:1006800029462046984770BD0020F3E74C32000011
:100690000D08000070B50D461646044660B1081CF2
:1006A00018BF01203D220549054B98476368324633
:1006B00029462046984770BD0020F3E74C320000E1
:1006C0000D0800002DE9F8430F469046044628B374
:1006D00031B3101C18BF0120F1221249124B984768
:1006E0000834124D2046A8470028FBD0013F0026C1
:1006F000DFF840900D4D17F8011F2046C8472046EF
:10070000A8470028FBD001364645F4D3084D2046C3
:10071000A8470028FBD03046BDE8F8830020DBE77F
:100720000020D9E7603200000D0800000F0F000024
:10073000190F0000010F00002DE9F8430F46904605
:100740000446E0B1E9B1101C18BF01204FF48672D5
:100750000D490E4B9847013F002608340C4DDFF839
:1007600034902046A8470028FBD02046C84707F809
:10077000010F01364645F4D33046BDE8F88300202A
:10078000E4E70020E2E700BF603200000D0800004F
:10079000230F0000070F000038B50D46044698B13E
:1007A000081C18BF012034220849094B98472946E4
:1007B00004F10800074B9847034618B9064A6260DF
:1007C000064A2260184638BD0020ECE7603200007F
:1007D0000D080000C10E000039070000C50600002A
:1007E00010B5044653220649003018BF0120054BBE
:1007F000984704F10800044B9847002010BD00BF43
:10080000603200000D080000ED0E000000B900BECF
:10081000704700000346064A126822B1044A106875
:100820000344136070470349014A1160F6E700BFB3
:1008300000020020A80201204FF0FF3070474FF463
:1008400000534B6000207047012070470020704724
:1008500010B401608B6943F001038B6102689369F6
:1008600013F0010FFBD0936943F002039361384BFF
:10087000994212D00268936923F0020393610268DF
:10088000936923F0010393610268936913F0010FE8
:10089000FBD100205DF8044B70472E4B1A4642F8FE
:1008A000040B2D4981610468A16941F44071A16183
:1008B000016802248C600168284CCC61016840F614
:1008C0004354CC600468264989B241F0004141F4A8
:1008D0008031C4F8A01004680021C4F8BC1004687A
:1008E000C4F8C81004681F4989B241F08071C4F887
:1008F000C010016892B242F40032C1F8F0200268E0
:100900002821C2F88010016803F1140292B242F467
:100910000032C1F8842002681C339BB243F40033D8
:10092000C2F8883003686FF06042C3F890200E4B25
:100930004FF40042C3F88820BFF34F8FBFF36F8F8F
:10094000C3F888219A6003680122DA6592E700BF44
:10095000000400420402002000000020133A001CA2
:10096000800200207002002000E100E0026893692C
:1009700023F0010393610020704700000368D3F85F
:10098000A42012F07F0F45D0F0B585B0D3F8A45065
:10099000234A934202D06FF01B0032E0C5F30525D5
:1009A0002A01204BD61838D0D45814F0804F2AD1C1
:1009B00000244C73D458C4F38A440C60D35813F009
:1009C000005F1CBF01230B710C460746164B0FCB73
:1009D0000DF1100E0EE90F007368C3F30343734467
:1009E00013F8102C227306F10801A0680F4B9847EA
:1009F0003A68D2F8A83023F03F031D43C2F8A8504C
:100A0000002005B0F0BD01244C73D458C4F31C047D
:100A10000C60D3E76FF0090070476FF01B00F0E740
:100A200000040042800200207C3200001D150000FE
:100A300038B50368D3F8C42012F4001F77D1D3F877
:100A4000C4203E4CA34202D06FF01B0038BDC2F35D
:100A5000044212013A4D53196CD04C7B012C0C68A6
:100A600003BF5451545944F08044A40454510A7BA8
:100A7000082A25D85C6862F313445C600446026867
:100A80009269C2F30022586862F355505860226898
:100A90009269C2F34022586862F3145058600A7B8E
:100AA000896803F10800274B98472168D1F8C420D2
:100AB000C2F3044201239340C1F8D030002038BD76
:100AC0000C2A05D85A68092464F313425A60D5E702
:100AD000102A05D85A680A2464F313425A60CDE7F5
:100AE000142A05D85A680B2464F313425A60C5E7E8
:100AF000182A05D85A680C2464F313425A60BDE7DB
:100B0000202A05D85A680D2464F313425A60B5E7C9
:100B1000302A05D85A680E2464F313425A60ADE7B0
:100B2000402AABD85A6842F470225A60A6E76FF0A8
:100B30001B0038BD6FF01B0038BD00BF0004004231
:100B4000700200201D15000021B1012909D00229E1
:100B500014D0704701684B6D23F001031A434A65B6
:100B6000704701684B6D23F4007343EA42224A65E3
:100B700003684FF0FF32C3F8E02070470268536DFE
:100B800023F4FF739B059B0D5365E2E78069F2B97F
:100B9000C268CBB1586842F82100186852F8213079
:100BA00060F31A4342F8213052F82130022060F3FA
:100BB0009F7342F8213052F82130012060F3DD6349
:100BC00042F821300020704742F82130FAE730B473
:100BD000012A02D0002030BC7047026902EBC1003C
:100BE0008BB11C6842F8314052F83140012565F361
:100BF0005F7442F831405B6843604368022262F3ED
:100C00009F734360E6E742F83130E3E738B51D4BA8
:100C10001D682B681C6D14F0010F1CD114F4007FAB
:100C20001DD114F0007F1ED114F0807F20D114F468
:100C3000000F0AD0EA682B685B6CC3F34013002BEB
:100C400014BF022101212846904714F0080F14D147
:100C50002B681C6538BDAB6828469847DEE76B6893
:100C600028469847DDE7EB68032128469847DBE7ED
:100C7000EB68002128469847D9E7EB68042128460D
:100C80009847E5E70402002008B5094A13889BB29B
:100C900043F4A0631380074B9847074B9847074BD3
:100CA0009847074B984740F6FF70064B984708BD9A
:100CB00000400041310D0000510D0000250D0000E5
:100CC000550D0000C90C000010F0010F08D0114AAA
:100CD000114B1A62194643F6FD724B681342FCD160
:100CE00010F0040F08D00D4A0B4B9A62194643F6D8
:100CF000FD724B681342FCD110F0080F08D0084A6F
:100D0000054BDA62194643F6FD724B681342FCD17B
:100D1000704700BF07010100001C004007010300ED
:100D2000050101000122014B5A7170470008004083
:100D3000064B42F28E029A8200229A75DA75DA69BF
:100D400002F47C52DA6101221A74704700140040E8
:100D5000704700000E4A0F4B5A631A46D36B13F0CC
:100D6000060FFBD10B4B4FF402629A63022283F809
:100D700030201A46D36B13F0020FFBD1054B1A6CCF
:100D800012F0010F03D11A6C12F0020FF7D0704766
:100D90004D0E02000010004000B583B00D4B9B7853
:100DA000DBB20193019B13F0020F06D00A4B1B68C4
:100DB0001BB1084A5068984709E0019B13F0010FE6
:100DC00005D0054B5B6813B1024A5068984703B0E1
:100DD0005DF804FB000002419002002070B489B06D
:100DE00006466C460D4D0FCD0FC495E80F0084E804
:100DF0000F00009BB3420DD0314601AB012053F8E8
:100E0000042B8A4207D001300828F8D1002009B00D
:100E100070BC70470020C0B2F9E700BF8C32000000
:100E200010B50446214B9847032805D040F24722CD
:100E30001F4900201F4B9847E36913F0010F19D198
:100E4000E36913F0030FFBD1236813F0020F0BD0FB
:100E5000236823F002032360E36913F0030FFBD13F
:100E6000E36913F0020FFBD105232360E36913F05C
:100E7000030FFBD1E36913F0010FFBD10E4B23608D
:100E8000E36913F0030FFBD14FF440336360E36970
:100E900013F01F0FFBD1094BA3604FF61143A38141
:100EA0000020A07384F8300010BD00BFDD0D0000ED
:100EB000C43200000D080000040010400200700061
:100EC00038B50C460546BB220549003018BF012045
:100ED000044B98472C602046034B984738BD00BF11
:100EE000C43200000D080000210E000002681368E3
:100EF00043F002031360D36913F0030FFBD1704773
:100F00000368996270470368986AC0B270470368C3
:100F1000187E00F0010070470368187EC0F340009F
:100F200070470368187EC0F38000704708B50D4B0A
:100F30001A68936943F001039361936913F0010FF9
:100F4000FBD0936943F002039361936943F4807388
:100F50009361936943F4007393610348034B98478B
:100F600008BD00BF3C020020E03200002D1600004A
:100F700008B50248024B984708BD00BFE0320000A8
:100F80002D16000070B594B0CDF848D010A90D4BC7
:100F900098470D480D4B98479DF84C3063B100249D
:100FA0000B4E0C4D129B195D3046A8470134E4B23C
:100FB0009DF84C30A342F5D80748044B984714B02D
:100FC00070BD00BF81050000FC3200002D1600003E
:100FD0003033000045150000EC350000F0B5ABB033
:100FE000B44B9847B448B54B984713A923A80B4670
:100FF0005A1A03F8012B8342FAD10DF10B02802318
:1010000002F8013F0133DBB2C02BF9D101A903A8DB
:101010000B465A1A03F8012B9842FAD1A84DA94C55
:10102000A94E02E0A448A54B98470DF1A701284618
:10103000A0479DF8A730303B382BF6D801A252F8D4
:1010400023F000BF291100005111000079110000A8
:10105000B5110000F1110000171200003F1200004E
:10106000791200002B1000002B1000002B10000044
:101070002B1000002B1000002B1000002B10000084
:101080002B1000002B1000002B1000002B10000074
:101090002B1000002B1000002B1000002B10000064
:1010A0002B1000002B1000002B1000002B10000054
:1010B0002B1000002B1000002B1000002B10000044
:1010C0002B1000002B1000002B1000002B10000034
:1010D0002B1000002B1000002B1000002B10000024
:1010E0002B1000002B1000002B1000002B10000014
:1010F0002B1000002B1000002B1000002B10000004
:101100002B1000002B100000111300002B1000000A
:101110002B1000002B1000002B1000007913000092
:101120002B100000251000006848644B9847684F5A
:10113000684A00213846684B984740F25A43239347
:101140000021249123AB0A463846644FB8476CE728
:1011500063485A4B98475E4F5E4A002138465E4BC3
:10116000984740F2694323930022249223AB012144
:1011700038465A4FB84758E75A48504B984740F2BC
:101180005A43259300238DF8983013AA27920822FA
:101190008DF8A0208DF8A1304D4F534A01213846DB
:1011A0004D4B98473846514B984725A93846504BE8
:1011B00098473AE74F48414B984740F26943259397
:1011C00000238DF8983003AA279208228DF8A020DA
:1011D0008DF8A1303E4F444A012138463E4B984796
:1011E0003846424B984725A93846414B98471CE75B
:1011F0004148324B9847364F364A00213846364BE5
:1012000098473E4B23930021249123AB012238467B
:10121000324FB84709E73A48284B98472C4F2D4A98
:10122000002138462C4B9847364B239300232493B8
:1012300023AB012211463846284FB847F5E632481D
:101240001E4B98472D4B259300238DF8983013ABF8
:10125000279308238DF8A03001218DF8A1101C4F91
:10126000214A38461C4B98473846204B984725A9B9
:1012700038461F4B9847D8E62448104B9847214BD7
:10128000259300238DF8983003AB279308238DF81E
:10129000A03001218DF8A1100D4F134A38460E4B96
:1012A00098473846114B984725A93846104B984720
:1012B000BBE600BFD1020000383300002D1600004D
:1012C000F03500003D16000078380000F4350000CD
:1012D0003C020020850F0000E105000031060000FF
:1012E0003436000074360000710F0000590500000C
:1012F000B1050000BC36000008370000A500001052
:101300004C3700009600001090370000DC370000DA
:101310003348344B984740F26943259300238DF8B6
:10132000983001AA279208228DF8A0208DF8A130CC
:101330002D4B1A68936943F001039361936913F08D
:10134000010FFBD0936943F002039361936923F487
:1013500080739361936923F400739361224F234A4E
:1013600001213846224B98473846224B984725A9F9
:101370003846214B984758E630461A4B984740F27A
:101380005A43259300238DF8983003AA2792082208
:101390008DF8A0208DF8A130134B1A68936943F0A3
:1013A00001039361936913F0010FFBD0936943F03C
:1013B00002039361936923F480739361936923F427
:1013C00000739361084F094A01213846084B98473A
:1013D0003846084B984725A93846074B984724E6D6
:1013E0002C3800002D1600003C0200202D0F0000BC
:1013F000E105000059050000B105000040B908B53D
:101400000B4611461846044B984740EAE07008BD69
:101410004FF0FF30704700BF6D1400000138022804
:1014200008D808B50B4611461846044B984740EAC1
:10143000E07008BD4FF0FF30704700BF911400000E
:1014400070B50646064D2B6800219868054CA047EC
:101450002B6800215868A047034B1E6070BD00BF79
:10146000140000206D1600003002002008B5064B65
:101470001B6833B10A46014692B21846034B98479F
:1014800008BD002008BD00BF300200209506000006
:1014900008B5064B1B6833B10A46014692B218469E
:1014A000034B984708BD002008BD00BF3002002054
:1014B0006506000010B5044C2046044B98472046B2
:1014C000034B984710BD00BF64020020E1070000F5
:1014D0004114000070B50D4E0D4CA41BA410002546
:1014E000A54209D10B4E0C4C02F0D2FAA41BA41059
:1014F0000025A54205D170BD56F825309847013525
:10150000EEE756F8253098470135F2E79C3A00009F
:101510009C3A00009C3A0000A03A000010B5431E1F
:101520000A44914200D110BD11F8014B03F8014F5C
:10153000F7E702440346934200D1704703F8011BCA
:10154000F9E700000FB40A4B13B51C6824B1A36976
:1015500013B9204600F004FB05AB049AA16801937F
:10156000204600F0E3FC02B0BDE8104004B0704734
:101570001400002070B50E46054618B183690BB9FA
:1015800000F0EEFAAB69AC6813B9284600F0E8FA4F
:10159000234B9C4217D16C68A3891B071DD5236977
:1015A000DBB1013EA36816F8011F013BA360E9B956
:1015B000002B2EDA22460A21284600F00DF90130D0
:1015C00011D00A2070BD174B9C4201D1AC68E3E7F3
:1015D000154B9C4208BFEC68DEE72146284600F028
:1015E0004DF90028DDD04FF0FF3070BD002B04DA3C
:1015F000A269934206DB0A2904D023685A1C2260A0
:101600001970CFE72246284600F0E6F80130C9D12C
:10161000E9E723680A205A1C2260187070BD00BFD9
:10162000E838000008390000C8380000024B0146C5
:101630001868FFF79FBF00BF140000200FB40A4BCB
:1016400013B51C6824B1A36913B9204600F088FAC9
:1016500005AB049A61680193204601F067F802B077
:10166000BDE8104004B070471400002000294FF47A
:1016700080630CBF0222002200F000B82DE9F7437E
:101680001D46514B1E6804460F46904626B1B3696D
:1016900013B9304600F064FA4C4B9C4252D1746846
:1016A000B8F1020F06D0B8F1010F00F28980002DC9
:1016B000C0F286802146304600F0D6F9616B41B118
:1016C00004F14403994202D0304600F05BFB002352
:1016D00063630023A3616360A3891B0603D52169AB
:1016E000304600F04FFBA38923F44A6323F0030341
:1016F000B8F1020FA3815DD001AB6A4621463046A6
:1017000000F0D4FAA3891843A0812DBB009D284680
:1017100000F030FB074600284ED1DDF80090A945C7
:101720003CD14FF0FF30A38943F00203A381002393
:10173000A36004F14703236023610123636103B0C5
:10174000BDE8F083224B9C4201D1B468A8E7214B4D
:101750009C4208BFF468A3E7002FD8D0B36913B93F
:10176000304600F0FDF9B8F1010F08BFA3892760EA
:1017700004BF43F00103A381A389276113F008008C
:1017800065611BD013F0010018BF6D424FF00003DC
:101790001DBFA360A5611846A560D0E7484600F0CC
:1017A000E9FA07460028BCD0A38943F08003A3814F
:1017B0004D46D3E70020B6E7A946F5E7A060BEE7AF
:1017C0004FF0FF30BBE700BF14000020E8380000F6
:1017D00008390000C8380000F8B50E461446054622
:1017E00018B183690BB900F0BBF9214B9C422AD197
:1017F0006C68A369A360A3891A072ED5236963B314
:1018000023692068C01A6369F6B29842374604DB40
:101810002146284600F028F928BBA368013BA360B5
:1018200023685A1C22601E7063690130984204D0FC
:10183000A389DB0719D50A2E17D12146284600F0C7
:1018400013F990B10FE00B4B9C4201D1AC68D0E78B
:10185000094B9C4208BFEC68CBE72146284600F0C4
:101860000DF80028CCD04FF0FF373846F8BD00BF48
:10187000E838000008390000C8380000324B70B565
:101880001D6806460C4625B1AB6913B9284600F021
:1018900067F92E4B9C420FD16C68B4F90C309AB2A8
:1018A00015072CD4D00611D40922326043F040032E
:1018B000A3814FF0FF3070BD254B9C4201D1AC6835
:1018C000EBE7244B9C4208BFEC68E6E7510712D5D2
:1018D000616B41B104F14403994202D0304600F0FB
:1018E00051FA00236363A38923F02403A381002317
:1018F000636023692360A38943F00803A3812369FC
:101900004BB9A38903F42073B3F5007F03D02146BC
:10191000304600F0EFF9A28912F001030CD0002349
:10192000A36063695B42A361236953B9B4F90C30C6
:1019300013F08000BAD170BD920758BF6369A360ED
:10194000F2E70020F7E700BF14000020E8380000AD
:1019500008390000C83800008A892DE9F0410546A1
:1019600010070C465AD44B68002B05DC0B6C002B7F
:1019700002DC0020BDE8F081E66A002EF9D00023E9
:1019800012F480522F682B6033D0606DA3895A0700
:1019900005D56368C01A636B0BB1236CC01A0023B2
:1019A0000246E66A216A2846B047431CA38906D14D
:1019B00029681D294BD82B4ACA40D60747D5002293
:1019C0006260D9042269226004D5421C01D12B68CF
:1019D00003B96065616B2F600029CAD004F144032C
:1019E000994202D0284600F0CDF900206063BDE89E
:1019F000F081216A01232846B047411CC6D12B68DB
:101A0000002BC3D01D2B01D0162B01D12F60B0E7C6
:101A1000A38943F04003A381BDE8F0810F69002F43
:101A2000A7D093070E6808BF4B690F6018BF00234B
:101A3000A6EB07088B60B8F1000F9ADD43463A46E3
:101A4000216AA66A2846B047002807DCA38943F02C
:101A50004003A3814FF0FF30BDE8F0810744A8EBBD
:101A60000008E8E70100402038B50B6905460C4640
:101A7000DBB118B183690BB900F072F80C4B9C42D2
:101A800009D16C68B4F90C307BB121462846BDE819
:101A90003840FFF761BF074B9C4201D1AC68F1E7CA
:101AA000054B9C4208BFEC68ECE7002038BD00BF46
:101AB000E838000008390000C8380000014620B9A5
:101AC000044B0549186800F0D3B8044B1868FFF7B9
:101AD000CBBF00BFC4380000691A0000140000200A
:101AE000014900F0C5B800BF691A0000002310B515
:101AF000044603604360836081814366C281036161
:101B000043618361194608225C30FFF712FD054BE3
:101B10006362054BA362054BE362054B24622363BA
:101B200010BD00BFD52B0000F72B00002F2C0000AC
:101B3000532C000070B54A1E682555430E4605F12A
:101B4000740100F06DF9044640B1002180E84200C4
:101B50000C30A06005F16802FFF7EBFC204670BD79
:101B6000836910B5044633BB8364C3640365124BB9
:101B7000124A1B688262984204BF0123836100F00D
:101B80001FF86060204600F01BF8A060204600F0BF
:101B900017F80022E06004216068FFF7A7FF012228
:101BA0000921A068FFF7A2FF02221221E068FFF7D7
:101BB0009DFF0123A36110BDC4380000E11A00009D
:101BC000F8B51C4B1E68B369074613B93046FFF7DA
:101BD000C7FF4836B4687368013B03D5336833B137
:101BE0003668F7E7B4F90C506DB16834F4E70421B6
:101BF0003846FFF79FFF30600028F1D10C233B608F
:101C000004462046F8BD4FF6FF73E3810123A3810C
:101C100065662560A560656025616561A56108222E
:101C2000294604F15C00FFF784FC6563A563A564A5
:101C3000E564E6E7C43800002DE9F041884600F18C
:101C40004804002614B93046BDE8F081A5686768ED
:101C5000013F01D52468F5E7AB89012B06D9B5F919
:101C60000E30013302D02846C04706436835EFE7FF
:101C70002DE9F8438046894600F14804002614B94E
:101C80003046BDE8F883A5686768013F01D5246840
:101C9000F5E7AB89012B07D9B5F90E30013303D035
:101CA00029464046C84706436835EEE770B50E46FC
:101CB000B1F90E10002990B014461D4607DA002332
:101CC0002B60B3891A0610D44FF480630EE001AA8A
:101CD00001F0B6F90028F2DB029A02F47042A2F594
:101CE00000535A425A412A60EEE740230020236005
:101CF00010B070BD8B8973B59D0706460C4607D59D
:101D000004F14703236023610123636102B070BDC6
:101D100001AB6A46FFF7CAFF00990546304600F05E
:101D20007FF848B9B4F90C309A05EFD423F00303D7
:101D300043F00203A381E3E70D4BB362A389206064
:101D400043F08003A381009B6361019B20615BB131
:101D5000B4F90E10304601F085F928B1A38923F0BB
:101D6000030343F00103A381A3891D43A581CDE7AC
:101D7000E11A0000024B0146186800F051B800BF9C
:101D80001400002038B50546002945D051F8043C20
:101D90000C1F002BB8BFE41801F0FAF91F4A1368B2
:101DA000104633B9636014602846BDE8384001F03E
:101DB000F0B9A3420CD921686218934204BF1A6893
:101DC0005B68636004BF521822600460ECE713464E
:101DD0005A680AB1A242FAD919685818A0420BD120
:101DE00020680144581882421960DDD11068526899
:101DF0005A6001441960D7E702D90C232B60D3E75E
:101E0000206821188A4204BF11685268626004BFCA
:101E1000091821605C60C7E738BD00BF34020020AC
:101E200070B5CD1C25F0030508350C2D38BF0C25E9
:101E3000002D064601DBA94203D90C2333600020A4
:101E400070BD01F0A5F9234A1468214691B9224CCE
:101E500023681BB9304600F07DFE206029463046DD
:101E600000F078FE431C26D10C233360304601F08D
:101E700090F9E4E70B685B1B1AD40B2B0FD90B60AE
:101E8000CD50CC18304601F084F904F10B00231D2D
:101E900020F00700C31A1BD05A42E25070BD8C429A
:101EA0000DBF63684B686360136018BF0C46E9E7B9
:101EB0000C464968CAE7C41C24F00304A04205D0BC
:101EC000211A304600F046FE0130CDD02560D9E71A
:101ED00070BD00BF34020020380200209368013B2F
:101EE000002B10B4936008DA9469A34202DBCBB2F2
:101EF0000A2B02D110BCFFF76FBC1368581C10608E
:101F00001970C8B210BC7047F8B506460F461446A3
:101F1000D518AC4201D1002007E03A4614F8011B65
:101F20003046FFF7DBFF431CF3D1F8BD2DE9F04F3E
:101F30009DB00C4617460393064618B183690BB94A
:101F4000FFF70EFE7C4B9C4257D17468A38918079B
:101F50005DD52369002B5AD00023099320238DF8E7
:101F6000293030238DF82A304FF0010BB846454612
:101F700015F8013B002B55D1B8EB070A0BD053469F
:101F80003A4621463046FFF7BFFF013000F0C480DB
:101F9000099B5344099398F80030002B00F0BC8053
:101FA00000234FF0FF3204930793059206938DF8B8
:101FB00053301A9305222978604801F099F805F109
:101FC0000108049B002831D1D90644BF20228DF896
:101FD00053201A0744BF2B228DF853202A782A2A2F
:101FE0002CD0079A00210A20A846013598F8003025
:101FF000303B092B6DD971B326E0514B9C4201D186
:10200000B468A3E74F4B9C4208BFF4689EE72146A3
:102010003046FFF733FC00289ED04FF0FF301DB054
:10202000BDE8F08F252BA7D0A846A0E7434A801A29
:102030000BFA00F0184304904546BBE7039A111DC4
:1020400012680391002A01DB079204E0524243F038
:1020500002030792049398F800302E2B10D198F8C1
:1020600001302A2B08F1010137D1039B1A1D1B688F
:102070000392002BB8BF4FF0FF3308F1020805931D
:10208000314D98F800100322284601F031F840B194
:102090004023401B03FA00F0049B0343049308F120
:1020A000010898F8001029488DF82810062208F138
:1020B000010701F01DF8002834D0254B03BB039B1A
:1020C000073323F0070308330393099B4B44099319
:1020D0004CE700FB0232012186E7002305931846F6
:1020E0000A258846013198F80020303A092A03D998
:1020F000002BC5D00590C3E705FB00200123F0E7C6
:1021000003AB00932246134B04A93046AFF3008083
:10211000B0F1FF3F8146D8D1A3895B063FF57DAF83
:1021200009987CE703AB009322460A4B04A930468A
:1021300000F088F8ECE700BFE8380000283900001C
:1021400008390000C83800002E390000323900007C
:1021500000000000091F00002DE9F04791461F46CE
:102160008A680B69DDF820809342B8BF1346C9F82E
:10217000003091F8432006460C4612B10133C9F8ED
:1021800000302368990642BFD9F800300233C9F8FD
:102190000030256815F0060507D104F1190AE36837
:1021A000D9F800209B1A9D4229DB94F8433022681D
:1021B000003318BF012392062ED404F1430239469E
:1021C0003046C047013021D02368E568D9F80020A7
:1021D00003F00603042B08BFAD1AA36822690CBFE5
:1021E00025EAE57500259342C4BF9B1AED184FF010
:1021F00000091A344D451BD10020BDE8F0870123AA
:10220000524639463046C047013003D14FF0FF30C7
:10221000BDE8F0870135C2E7E1185A1C302081F88B
:102220004300224494F8451082F843100233C4E777
:102230000123224639463046C0470130E6D009F135
:102240000109D7E72DE9F04317460A7E85B06E2ACB
:10225000984606460C460C9B01F1430E00F0BC80EC
:102260001AD8632A2ED00AD8002A00F0C880582A2B
:1022700000F08A8004F1420584F842202AE0642AB2
:1022800001D0692AF6D121681A6811F0800F23D095
:10229000111D1960136827E0732A00F0B48008D874
:1022A0006F2A2AD0702AE5D10A6842F020020A601B
:1022B00003E0752A21D0782ADCD1782284F84520E1
:1022C0006E4964E01A6801F14205111D1960136836
:1022D00084F842300123A3E011F0400F02F1040121
:1022E0001960D7D0B2F90030002B03DA2D225B42FF
:1022F00084F8432062490A2217E02068196810F028
:10230000800F03D0081D18600B6806E010F0400F26
:1023100001F104001860F7D00B8859496F2A14BFE7
:102320000A220822002084F843006568A560002D79
:10233000C0F29C80206820F004002060002B3FD178
:10234000002D40F095807546082A0BD12368DA07E6
:1023500008D5236962689A42DEBF302305F8013C44
:1023600005F1FF35AEEB05032361CDF800803B4658
:1023700003AA21463046FFF7EFFE013055D14FF05A
:10238000FF3005B0BDE8F08381F845203C49226864
:10239000186812F0800F00F104051D6001D0036879
:1023A00002E05506FBD50388D00744BF42F0200267
:1023B00022601BB9226822F0200222601022B1E7BD
:1023C0007546B3FBF2F002FB1033CB5C05F8013D20
:1023D00003460028F5D1B7E708681A68496910F084
:1023E000800F04D0101D18601368196007E010F00A
:1023F000400F02F1040018601368F6D01980002322
:1024000023617546B1E71A68111D19601568626885
:102410000021284600F06CFE08B1401B6060636834
:102420002361002384F843309FE723692A46394615
:102430003046C0470130A2D023689B0707D500254E
:1024400004F11909E368039A9B1A9D4205DBE068D1
:10245000039B9842B8BF184693E701234A46394682
:102460003046C04701308AD00135EBE7002BA7D1B9
:102470000B7884F8423004F1420565E74A390000E0
:10248000393900002DE9F04FADF5257D0DF10C082F
:102490000193002346934793A04BA293DFF88492C5
:1024A0009F4BCDF8208106460C46A39392460A27FF
:1024B0009AF80030002B00F02F8100F0E7FD9AF829
:1024C00000B05844437813F0080343D1BBF1250F03
:1024D0000AF1010540F09980459343939AF8013041
:1024E0002A2B03D1102343930AF102052978A1F185
:1024F0003002092AAA4605F1010541D9032289487B
:1025000000F0F6FD38B1A0EB090301209840439B91
:1025100018434390AA469AF80030672B0AF1010548
:102520004AD8652B80F0B780472B2FD8452B80F0F9
:10253000B280002B00F08280252B66D003234993C4
:10254000449745E04799013147916168013301396A
:10255000616023606368002B0BDD00F097FD23684A
:102560001978084441780D07ECD40AF10105AA4610
:102570009EE7A39B2146304698470028EDD0F4E71C
:10258000459B07FB0313303B4593AFE75B2B61D0C3
:102590000CD8582BD2D1439A42F4007243921022A5
:1025A00044926F2BB4BF0323042310E0632B5CD051
:1025B000642BC3D14497F4E7702B42D01DD86E2B07
:1025C00059D043D8692BB9D10023449303234993AD
:1025D0006368002B61DD439B59066FD5499B022B35
:1025E0007CDC01AB224643A9304600F0C7F8012845
:1025F00000F092800228BAD11DE0752BDAD0782B3A
:10260000C9D0732B9AD10223E1E76368002B0CDD5C
:1026100023681A7893457FD1013362682360479B12
:10262000013A013362604793A1E7A39B21463046FC
:1026300098470028ECD04698002863D14FF0FF302F
:1026400066E0439A42F020024392A4E708234493B1
:102650000423BCE72946404600F08CFA439B43F034
:102660004003439305460123B1E7439B43F04003F6
:1026700043930023ABE7439AD0063FF578AF12F0BF
:10268000010F019A479B02F104010191126814BFE6
:10269000138013606BE7052399E7A39B214630461F
:1026A0009847002897D0C6E7479A01324792626858
:1026B000013A002A62600ADD0133236000F0E6FC83
:1026C00023681A78104442781207EDD486E7A39B5A
:1026D0002146304698470028F0D0ACE7042B06DCB2
:1026E00001AB224643A9304600F0ACF87FE70E4B21
:1026F000002B3FF43CAF01AB224643A93046AFF379
:10270000008074E7A38913F0400F18BF4FF0FF302B
:102710000DF5257DBDE8F08F4698F9E7192F0000EB
:10272000412A00002E390000000000002DE9F04190
:102730000C4616461F46054618B183690BB9FFF7CC
:102740000FFA0B4B9C4208D16C683B46324621463F
:102750002846BDE8F041FFF795BE064B9C4201D1EB
:10276000AC68F2E7044B9C4208BFEC68EDE700BFA1
:10277000E838000008390000C83800002DE9F041B1
:1027800015468A6880460C4632B98A69002A0CBF11
:1027900001224FF0FF328A602268D1065FBF1A68BB
:1027A000111D196017680026A369DBB1012B07D141
:1027B0002B6862691B78D35CA3B9002E32D106E086
:1027C000022B07D0002E2DD1A369012B2AD1012085
:1027D000BDE8F08100F05AFC2B681B781844437860
:1027E0001B07EFD42368DA065EBF2B681B783B70AB
:1027F0002A686B6802F101022A60A26803F1FF33C4
:1028000002F1FF326B6006F1010658BF0137A2608A
:1028100042B1002BC8DCD4F88031294640469847A5
:102820000028C1D0236813F0100305D1E2680132FB
:10283000E260A26902B13B7023691E442661002058
:10284000BDE8F0812DE9F04F9A46744B0C46834663
:10285000164693E8070087B003ABA76883E8070034
:102860006F4BA1696F4A032918BF1A467B1EB3F547
:10287000AE7F84BF40F25D13A3602368009243F4EF
:10288000506388BF6FF4AE7504F11C0923608CBFE0
:102890007F1900274B464FF000080193316803ABC6
:1028A000022253F82800097800F022FC019B28B38B
:1028B000B8F1010F56D162682AB908226260226815
:1028C00042F400722260226822F4A0622260A268B0
:1028D000511EA16092B13268511C316012781A7099
:1028E0005D1C7368013B002B736006DCD4F88031FB
:1028F000314658469847002876D12B4608F1010802
:10290000B8F1030FC9D162680AB90A22626062682D
:10291000454960690193891A00F02CF9019B4FF039
:1029200000081D46A368002B38D0316860690A781A
:10293000805C002832D0302A226821D110051FD5B2
:1029400008F1010817B10133013FA3607368013B2F
:10295000002B73601BDD336801333360A368013BD8
:10296000A360DFE7B8F1020FB1D1226802F4C061C1
:10297000B1F5007FC2D11021616042F48072A5E7F9
:1029800022F4106222600B782B700135DEE7D4F858
:1029900080313146584698470028DFD02368D90552
:1029A0000CD54D4508D915F8011CD4F87C313246B8
:1029B000584698476F1E3D464D452CD0226812F070
:1029C00010021ED12A706368009E49465846B047DF
:1029D0002268DAF8003012F0200F08D01A1DCAF869
:1029E00000201B68186009E04FF00008D6E7D20706
:1029F000F4D51A1DCAF800201B681880E36801335B
:102A0000E360A5EB0905A84425694544256100203C
:102A100007B0BDE8F08F0120FAE700BF5C39000085
:102A20007D2E00005D2D000078390000838903F0C1
:102A30000903092B01D1FFF741B8002070470000BE
:102A4000F8B50C46054618B183690BB9FFF788F84D
:102A50003B4B9C420AD16C68B4F90C2000236360A4
:102A600093B29E060CD54FF0FF30F8BD354B9C421B
:102A700001D1AC68F0E7344B9C4208BFEC68EBE74F
:102A8000580748D4D90605D4092342F040022B60E8
:102A9000A281E8E71A070BD521462846FEF7E4FF96
:102AA0000028E0D1A389A06023F00803A381A061DE
:102AB000A38943F00403A38123691BB92146284657
:102AC000FFF718F9B4F90C70BEB2B3070FD00123A9
:102AD000A3811E4B1E49186806F00906FFF7ACF8E3
:102AE000092EA78103D121462846FEF735FF22692A
:102AF0002260666A6369216A2846B04700286060E0
:102B00001CDCA38917BF002243F0200343F04003DD
:102B10006260A381A7E7616B0029CDD004F1440373
:102B2000994202D02846FFF72DF9236C63600020FC
:102B30006063002BC0D0E36B2360F8BD0020F8BDBC
:102B4000E838000008390000C8380000C438000028
:102B50002D2A000038B5064C0023054608462360A0
:102B6000FDF758FE431C02D1236803B12B6038BD2A
:102B7000A002002070B50B785E2B13BF4A1C8A1C84
:102B80004B78002108BF0121441E00F1FF0504F825
:102B9000011FA542FBD113B9013A104670BD81F067
:102BA0000104C45411460D782D2D01F1010206D007
:102BB0005D2DF2D00DB90A46EFE72B46F1E74E78CE
:102BC0005D2EFAD0B342F8DC023101339E42C45488
:102BD000FBDCE8E710B50C46B1F90E1000F000FB85
:102BE0000028ABBF636DA3891B1823F48053ACBFCF
:102BF0006365A38110BD2DE9F0411F468B89DB057C
:102C000005460C46164605D502230022B1F90E10E2
:102C100000F04AFAA389B4F90E1023F48053A3817B
:102C200032463B462846BDE8F04100F0E7B910B512
:102C30000C46B1F90E1000F037FA431CA38915BFFA
:102C4000606523F4805343F48053A38118BFA381AC
:102C500010BDB1F90E1000F0E3B92DE9F84F804630
:102C6000894692461F468B465D460A9815F8014BE9
:102C700000F008FA2044467816F008060BD12D2CF7
:102C80000BD12C7801260BF1020567B1102F14D15E
:102C9000302C0AD011E0AB46E6E72B2C04BF2C7891
:102CA0000BF10205F1E7302C27D12B7803F0DF037D
:102CB000582B4BD16C7810270235002E0CBF6FF0CB
:102CC00000414FF000410022B1FBF7FE104607FB28
:102CD0001E1CA4F13003092B11D81C46A7421DDD90
:102CE000531C07D0864516D301D1A44513DB00FB46
:102CF0000740012215F8014BEBE70A27DDE7A4F1B5
:102D00004103192B01D8373CE8E7A4F16103192BE3
:102D100004D8573CE2E74FF0FF32EBE7531C08D1F1
:102D20002223C8F800300846BAF1000F07D1BDE8E9
:102D3000F88F06B14042BAF1000F0CD022B1013D2C
:102D4000CAF80050BDE8F88F4D46F9E73024002F4F
:102D5000B3D10827B1E7BDE8F88F000037B5064CBE
:102D6000064D2468246A002C08BF2C460094FFF707
:102D700074FF03B030BD00BF1400002078000020B5
:102D80002DE9F0478046894692461E460F463D464D
:102D9000089815F8014B00F075F92044437813F0BA
:102DA00008030AD12D2C0AD12C780123BD1C5EB159
:102DB000102E13D1302C09D010E02F46E7E72B2C32
:102DC00004BF2C78BD1CF2E7302C25D12A7802F004
:102DD000DF02582A4AD16C78102602354FF0FF31B5
:102DE0000027B1FBF6F106FB01FE6FEA0E0E384636
:102DF000A4F13002092A11D81446A6421DDD002F85
:102E000018DB814216D301D1A64513DB00FB064037
:102E1000012715F8014BEBE70A26DFE7A4F1410291
:102E2000192A01D8373CE8E7A4F16102192A04D82D
:102E3000573CE2E74FF0FF37EBE7002F09DA222398
:102E4000C8F800304FF0FF30BAF1000F07D1BDE8ED
:102E5000F08703B14042BAF1000F0CD027B1013D19
:102E6000CAF80050BDE8F0874D46F9E73024002E3F
:102E7000B4D10826B2E7BDE8F087000037B5064CAC
:102E8000064D2468246A002C08BF2C460094FFF7E6
:102E900077FF03B030BD00BF140000207800002091
:102EA0002DE9F0410C46496B04F1440399421ED1CF
:102EB0004FF48061FEF7B4FF18B94FF0FF30BDE862
:102EC000F0814FF48063A36394F84630606380F828
:102ED000FF3394F8453080F8FE3394F8443080F89E
:102EE000FD3300F2FD3020600020BDE8F081A66BCC
:102EF00077003A4600F04EF905460028DDD000EB99
:102F00000608014632464046FEF708FBC4F800803A
:102F10006563A763E8E700004B1C70B506460D46E5
:102F2000144603D14FF0FF35284670BD18B18369B0
:102F30000BB9FEF715FE2E4B9C422CD17468B4F9E8
:102F40000C3023F02003A3819BB2590713D4DA0677
:102F5000E8D51B070BD521463046FEF785FD002836
:102F6000E0D1A389A06023F00803A381A061A38915
:102F700043F00403A381636B6268EDB2E3B1A36B1A
:102F80009A4212DA23685A1E226003F8015C6368D1
:102F900001336360C8E7174B9C4201D1B468CEE7A8
:102FA000154B9C4208BFF468C9E721463046FFF73D
:102FB00077FF0028E6D0B5E72169236851B199422F
:102FC00008D213F8011C8D4204D1013B0132236069
:102FD0006260A9E7E36304F1440363630323A3632B
:102FE0002346226403F8465F23600123D1E700BF34
:102FF000E838000008390000C838000038B5074C30
:10300000054608461146002222601A46FEF706FAD7
:10301000431C02D1236803B12B6038BDA0020020FD
:1030200038B5064C0023054608462360FDF704FC2E
:10303000431C02D1236803B12B6038BDA0020020DD
:1030400038B5074C00230546084611462360FDF7B6
:10305000F6FB431C02D1236803B12B6038BD00BFCF
:10306000A002002038B5064C002305460846236020
:10307000FDF7EAFB431C02D1236803B12B6038BD86
:10308000A0020020D0F8EC0070470000044B054A75
:103090001B681B6A002B08BF1346D3F8EC0070476F
:1030A000140000207800002038B5074C054608467B
:1030B0001146002222601A46FDF7C8FB431C02D1CC
:1030C000236803B12B6038BDA002002082B001B993
:1030D00001A942B14BB113780B601278101C18BFD4
:1030E000012002B070471046FBE76FF00100F8E7DF
:1030F00001F0FF01102A2BDB10F0070F08D010F8A9
:10310000013B013A8B422DD010F0070F42B3F6D1AC
:10311000F0B441EA012141EA014122F007047FF0C5
:1031200000070023F0E80256083C85EA010586EA1C
:10313000010685FA47F5A3FA87F586FA47F6A5FA58
:1031400087F68EB9EED1F0BC01F0FF0102F0070264
:1031500032B110F8013B013A83EA010313B1F8D10F
:103160000020704701387047002D06BF35460338F0
:10317000073815F0010F07D1013015F4807F02BF29
:10318000013015F4C03F0130F0BC0138704700BF7A
:1031900070477047F8B5074614460E4621B91146E8
:1031A000BDE8F840FEF73CBE22B9FEF7EBFD254630
:1031B0002846F8BD00F033F884420FD9214638463E
:1031C000FEF72EFE05460028F2D031462246FEF7D5
:1031D000A5F931463846FEF7D5FDE9E73546E7E77C
:1031E00038B5074C054608461146002222601A46AB
:1031F000FEF704F9431C02D1236803B12B6038BDEC
:10320000A002002049B1FF2A85BF8A2303600A700B
:103210004FF0FF3098BF012070470846704751F8C3
:10322000040C0028A0F10400BCBF0B58C018704764
:103230002E2E2F68616C2F7372632F68616C5F6331
:10324000616E5F6173796E632E6300002E2E2F68AE
:10325000616C2F7372632F68616C5F696F2E6300FE
:103260002E2E2F68616C2F7372632F68616C5F75EF
:10327000736172745F73796E632E630000010203E1
:1032800004050607080C10141820304000300040D8
:103290000034004000200141004001410000004393
:1032A0000004004300080043000C0043000000003D
:1032B000000000000000000000000000000000000E
:1032C000000000002E2E2F68706C2F736572636FE4
:1032D0006D2F68706C5F736572636F6D2E63000095
:1032E000202043414E205472616E736D697373697F
:1032F0006F6E20646F6E65200D0000000A0D204384
:10330000414E204D65737361676520726563656921
:10331000766564202E205468652072656365697641
:10332000656420646174612069733A200D000000B7
:1033300020202564000000004D656E75203A0D0ABE
:1033400020202D2D2053656C6563742074686520E2
:10335000616374696F6E3A0D0A2020303A2053651C
:1033600074207374616E646172642066696C746544
:103370007220494420303A2030783435412C207373
:10338000746F726520696E746F2052782062756662
:103390006665722E200D0A2020313A205365742074
:1033A0007374616E646172642066696C7465722006
:1033B000494420313A2030783436392C2073746FE8
:1033C000726520696E746F205278204649464F20FE
:1033D000302E200D0A2020323A2053656E6420469C
:1033E00044207374616E64617264206D65737361EF
:1033F000676520776974682049443A20307834350D
:103400004120616E642036342062797465206461E5
:103410007461203020746F2036332E200D0A202056
:10342000333A2053656E64204644207374616E64A1
:10343000617264206D657373616765207769746874
:103440002049443A20307834363920616E64203681
:1034500034206279746520646174612031323820CF
:10346000746F203139312E200D0A2020343A205338
:10347000657420657874656E6465642066696C7433
:10348000657220494420303A203078313030303075
:103490003041352C2073746F726520696E746F2013
:1034A0005278206275666665722E200D0A202035DE
:1034B0003A2053657420657874656E64656420668F
:1034C000696C74657220494420313A20307831307B
:1034D0003030303039362C2073746F726520696E4D
:1034E000746F205278204649464F20312E200D0A15
:1034F0002020363A2053656E642046442065787457
:10350000656E646564206D657373616765207769B6
:1035100074682049443A20307831303030303041BE
:103520003520616E642036342062797465206461D0
:103530007461203020746F2036332E200D0A202035
:10354000373A2053656E6420464420657874656E72
:10355000646564206D65737361676520776974685D
:103560002049443A203078313030303030393620FC
:10357000616E642036342062797465206461746100
:103580002031323820746F203139312E200D0A203D
:1035900020613A2053656E64206E6F726D616C20FD
:1035A0007374616E64617264206D657373616765C5
:1035B00020776974682049443A20307834363920BD
:1035C000616E6420382062797465206461746120C2
:1035D0003020746F20372E200D0A2020683A2044B6
:1035E0006973706C6179206D656E75200D0A0D0030
:1035F000256300002020303A2053657420737461E5
:103600006E646172642066696C746572204944203E
:10361000303A2030783435412C2073746F72652035
:10362000696E746F205278206275666665722E200E
:103630000D0000002020313A20536574207374611E
:103640006E646172642066696C74657220494420FE
:10365000313A2030783436392C2073746F726520FB
:10366000696E746F205278204649464F20302E20D4
:103670000D0000002020323A2053656E64207374E0
:10368000616E64617264206D657373616765207734
:103690006974682049443A20307834354120616E9D
:1036A000642036342062797465206461746120304E
:1036B00020746F2036332E200D0000002020333A76
:1036C0002053656E64207374616E64617264206D52
:1036D00065737361676520776974682049443A208F
:1036E000307834363920616E642036342062797443
:1036F0006520646174612031323820746F20313963
:10370000312E200D000000002020343A2053657433
:1037100020657874656E6465642066696C74657292
:1037200020494420303A2030783130303030304138
:10373000352C2073746F726520696E746F20527817
:10374000206275666665722E200D00002020353AD5
:103750002053657420657874656E646564206669BD
:103760006C74657220494420313A20307831303011
:1037700030303039362C2073746F726520696E7466
:103780006F205278204649464F20312E200D0000F0
:103790002020363A2053656E6420657874656E6427
:1037A0006564206D6573736167652077697468204F
:1037B00049443A2030783130303030304135206162
:1037C0006E642036342062797465206461746120EF
:1037D0003020746F2036332E200D00002020373A21
:1037E0002053656E6420657874656E646564206D31
:1037F00065737361676520776974682049443A206E
:103800003078313030303030393620616E642036D7
:10381000342062797465206461746120313238200B
:10382000746F203139312E200D0000002020613AC4
:103830002053656E64206E6F726D616C20737461CD
:103840006E64617264206D6573736167652077696A
:1038500074682049443A20307834363920616E64E7
:10386000203820627974652064617461203020748E
:103870006F20372E200D00002020613A2053656E06
:1038800064206E6F726D616C207374616E6461721E
:1038900064206D657373616765207769746820497A
:1038A000443A20307834354120616E6420382062FB
:1038B0007974652064617461203020746F20372E24
:1038C000200D000018000020000000000000000093
:1038D00000000000000000000000000000000000E8
:1038E00000000000000000000000000000000000D8
:1038F00000000000000000000000000000000000C8
:1039000000000000000000000000000000000000B7
:1039100000000000000000000000000000000000A7
:103920000000000000000000232D302B2000686CF8
:103930004C006566674546470030313233343536D2
:10394000373839414243444546003031323334350B
:103950003637383961626364656600007A39000081
:103960007D39000080390000412D46612D663839CF
:1039700030313233343536375D002B2D0030300096
:103980007858004300504F534958002E0000202023
:1039900020202020202020282828282820202020FF
:1039A00020202020202020202020202020208810BF
:1039B000101010101010101010101010101004041F
:1039C0000404040404040404101010101010104126
:1039D0004141414141010101010101010101010197
:1039E000010101010101010101101010101010422C
:1039F0004242424242020202020202020202020267
:103A00000202020202020202021010101020000044
:103A100000000000000000000000000000000000A6
:103A20000000000000000000000000000000000096
:103A30000000000000000000000000000000000086
:103A40000000000000000000000000000000000076
:103A50000000000000000000000000000000000066
:103A60000000000000000000000000000000000056
:103A70000000000000000000000000000000000046
:103A80000000000000000000000000000000000036
:103A9000F8B500BFF8BC08BC9E467047890200001C
:103AA000F8B500BFF8BC08BC9E4670476502000030
:103AB000800200207002002008020020180200206E
:103AC000200200201800002000000000E83800005C
:103AD00008390000C83800000000000000000000A5
:103AE00000000000000000000000000000000000D6
:103AF00000000000000000000000000000000000C6
:103B000000000000000000000000000000000000B5
:103B100000000000000000000000000000000000A5
:103B20000000000000000000430000000000000052
:103B30000000000000000000000000000000000085
:103B40000000000000000000430000000000000032
:103B50000000000000000000000000000000000065
:103B60000000000000000000430000000000000012
:103B70000000000000000000000000000000000045
:103B800000000000000000004300000000000000F2
:103B90000000000000000000000000000000000025
:103BA00000000000000000004300000000000000D2
:103BB0000000000000000000000000000000000005
:103BC00000000000000000004300000000000000B2
:103BD00000000000000000000000000000000000E5
:103BE0000000000000000000430000000000000092
:103BF00000000000000000000000000000000000C5
:103C0000000000000000000005320000CD30000080
:103C1000000000008D3900008B3900002D390000B4
:103C20002D3900002D3900002D3900002D390000FC
:103C30002D3900002D3900002D3900002D390000EC
:103C4000FFFFFFFFFFFFFFFFFFFFFFFFFFFF000082
:103C500001004153434949000000000000000000FA
:103C60000000000000000000000000000000000054
:103C700000004153434949000000000000000000DB
:103C80000000000000000000000000000000000034
:043C90000000000030
:00000001FF
